:020000040800F2
:10000000F807002091020008EF3B00083B39000888
:10001000ED3B0008E514000809430008000000005B
:10002000000000000000000000000000F33B00089A
:10003000F514000800000000F13B0008F53B000843
:10004000AB020008AB020008AB020008AB020008DC
:10005000AB020008AB020008AB020008AB020008CC
:10006000AB020008AB020008AB020008AB020008BC
:10007000AB020008AB020008AB020008AB020008AC
:10008000AB020008AB020008AB020008AB0200089C
:10009000AB020008AB020008AB020008AB0200088C
:1000A000AB020008AB020008AB020008AB0200087C
:1000B000AB020008713C0008AB020008AB0200086C
:1000C000AB020008AB020008AB020008AB0200085C
:1000D000AB020008AB020008AB020008AB0200084C
:1000E000AB020008AB020008AB020008AB0200083C
:1000F000AB020008AB020008AB020008AB0200082C
:10010000AB020008AB020008AB020008AB0200081B
:10011000AB020008AB020008AB020008AB0200080B
:10012000AB020008AB020008AB020008AB020008FB
:10013000AB020008AB020008AB020008AB020008EB
:10014000E9140008AB020008AB020008AB0200088B
:10015000AB020008AB020008AB020008AB020008CB
:10016000AB020008AB020008AB020008AB020008BB
:10017000AB020008AB020008AB020008AB020008AB
:10018000AB020008AB020008AB020008AB0200089B
:10019000AB02000800000000AB020008AB02000840
:1001A000AB020008AB020008AB020008AB0200087B
:1001B000AB020008AB020008AB020008AB0200086B
:1001C000AB020008AB020008AB020008AB0200085B
:1001D000AB020008AB02000800F002F800F049F89A
:1001E0000AA090E8000C82448344AAF10107DA4592
:1001F00001D100F03EF8AFF2090EBAE80F0013F09B
:10020000010F18BFFB1A43F001031847884600008E
:10021000A8460000103A24BF78C878C1FAD852071F
:1002200024BF30C830C144BF04680C607047000070
:100230000023002400250026103A28BF78C1FBD8EF
:10024000520728BF30C148BF0B607047662904F0D1
:10025000B482002070471FB504F0A5FA00F0A2FB9D
:1002600004000020002104F0E7F8E0601FBD10B595
:1002700010BD00F097FC1146FFF7EDFF04F09EF86B
:1002800000F0B5FC03B4FFF7F2FF03BC00F0F8FC8C
:100290000948804709480047FEE7FEE7FEE7FEE71A
:1002A000FEE7FEE7FEE7FEE7FEE7FEE70448054956
:1002B000054A064B70470000613C0008D901000860
:1002C000F8010020F8070020F8030020F8030020C0
:1002D00053EA020C00F069802DE9F04B4FF0000664
:1002E000002B1FBFB3FA83F503FA05F424FA05F6D1
:1002F0005E4012BF1643B2FA82F502FA05F4C5F168
:1003000020051EBF22FA05FC44EA0C04203556EAFB
:10031000044C4FEA144418BF641C4FF000084FF01F
:100320000009904271EB030C39D3002919BFB1FACF
:1003300081F701FA07F6B0FA80F700FA07F6C7F17D
:1003400020071EBF20FA07FC46EA0C062037B6FB42
:10035000F4FCA7EB0507103F07F01F0BCBF12006BD
:100360000CFA0BFB2CFA06F644BFB3460026202FEE
:10037000A4BF5E464FF0000B5BEA060C08BF4FF0CF
:10038000010B19EB0B09ABFB027C48EB0608C01B09
:1003900006FB02CC0BFB03CC71EB0C01C1E70B4657
:1003A000024641464846BDE8F08B13B54FF00000C9
:1003B0004FF00001AFF30080BDE81C407047000023
:1003C0000FB41CB5074B06AA7B44694600900598FC
:1003D00000F0CFFA0020694600F0DEFA1CBC5DF8A0
:1003E00014FB0000CD0500002DE9F0474FF0000A96
:1003F00089460446C0F820A02046E16888470028C6
:1004000076D0252806D0D4E901219047206A401CE7
:100410002062F1E7E168204600258847C4F81CA067
:1004200006460027C4F818A02A2E09D0304603F04B
:1004300094FF38B304EB8708303EC8F8186019E021
:1004400059F8041B204604EB87029161E168884754
:10045000012F064618D1E069002820DA25F0200592
:100460001DE0D8F8180000EB800006EB40003038A3
:10047000C8F818002046E1688847064603F06DFF7B
:100480000028EED1012F0AD02E2E08D12046E16897
:1004900088477F1C0646022F45F02005C4DBA06973
:1004A000002803DA404245F00105A061E80701D0C9
:1004B00025F01005B6B1A6F14100192802D8203662
:1004C00045F400654A463146204625604D46FFF713
:1004D000BDFE58B1012806D0ED1D25F0070000F142
:1004E000080989E704E005F1040985E730468AE751
:1004F000206ABDE8F0874FF0000200B5134694462D
:100500009646203922BFA0E80C50A0E80C50B1F16B
:100510002001BFF4F7AF090728BFA0E80C5048BF7F
:100520000CC05DF804EB890028BF40F8042B08BF1D
:10053000704748BF20F8022B11F0804F18BF00F819
:10054000012B704770477047704770472DE9FF4F88
:100550000C461E464FF0FF378BB0D2E90001DDF8A4
:1005600060800A908A46C1F30A5505B93D460021CC
:1005700008464FF00000BAF1000F00F4400005DA21
:1005800000EB80004FF4400101EA50004FEA90591F
:10059000B9F1010F00DDB9460A9850EA4A000ED0C1
:1005A00044F61050A5F2FF3545432F14B8F1000F63
:1005B0001ED07542291E1EDDC9F100021CE0B8F1F3
:1005C000010F4FF0000001D0302103E0F24305E0BD
:1005D0002154401CB042FBDB304600220021215454
:1005E0000B99C1F80880C1E900200FB0BDE8F08F79
:1005F000BD1B6D1CDEE74A4600DA694206A800F022
:100600005BFA06AB93E8070003AB83E807005046AC
:100610000A9900F03CFB8DE80700A0F500501F3858
:1006200000900398002D0ADD42F21F014A4608445B
:10063000002303A90390684600F0A5FD09E0A0F59A
:1006400000504A461F38002303A90390684600F073
:10065000AFFD8DE807000004000C03D04FF0FF3021
:10066000410800E01046B8F1000F03D000220092CC
:1006700015461EE0751E05D400F098F9303262551B
:100680006D1EF9D5B3460122084302D000227F1C1B
:1006900004E02078302801D100227F1E002A09972B
:1006A00084D01DE0112D07DA00F080F93032625558
:1006B0006D1C50EA0102F5D1084302D00098C8B180
:1006C0000EE00021681E05E0235C625C6354225446
:1006D000401E491C8142F7DBAB46A81B401E099017
:1006E000002004F80B000B98099AC0F80880C0E9B4
:1006F000002B7AE711264FF0000857E72DE9F04F5D
:1007000088460446D21D22F0070191B0D1E90001CC
:10071000CDE90A0103F0F9FD02460B98C00F01D0A4
:100720002D2007E02068810701D52B2002E0202141
:1007300001EAC000032A099001D0072A05DB03461D
:100740004146204600F078F90BE12078800601D57B
:10075000E06900E00620B8F1650F814606D0B8F1E7
:10076000660F18D0B8F1670F70D131E00020B9F1F1
:10077000110F009001DB112301E009F101030AAA26
:1007800001A90CA8FFF7E2FEDDE90C70002609F1D3
:100790000105834647E001204B4600904FF000479B
:1007A0000AAA01A90CA8FFF7D1FEDDE90DB00C994A
:1007B0005D46002610B909F101000D18B9EB0500DE
:1007C00003D4C0F1FF3609F10105A5EB09002BE0C8
:1007D000B9F1010F01DA4FF001090020B9F1110F51
:1007E0000090484601DD112300E003460AAA01A952
:1007F0000CA8FFF7ABFEDDE90C704D4600268346E2
:10080000207800070AD4AB4500DA5D4601A8012D27
:1008100004DD411911F8011C302907D04F4502DAD7
:1008200017F1040F04DA012082460FE06D1EEEE797
:10083000002F02DCED1B3E4403E0781CA84200DDE3
:100840007D1CB81B00F1010A4FF00047207800071B
:1008500003D4AA4501DB4FF0FF3A0021B7F1004F66
:100860000DF143088DF8431024D002202B23002FD4
:1008700001DA7F422D230A21021EA0F1010000DCD3
:100880005FB197FBF1FC97FBF1F201FB1C7C174673
:100890000CF1300C08F801CDEEE7A8F1010003706F
:1008A0002188090501D5452100E06521A0F1010855
:1008B00000F8011C09980FA9A1EB0807FF1D00B162
:1008C0000120411901EBEA70A1693844081A401E61
:1008D000A0612078C00602D42046AFF300800998BA
:1008E00028B1D4E901219047206A401C2062207879
:1008F000C00622D52046AFF300801EE0002E04DBA8
:10090000B34502DD01A8805D00E03020D4E901217B
:100910009047206A401C2062761CAAF101005FEA21
:10092000000A0AD100F03EF8C0680168405CD4E9D2
:1009300001219047206A401C2062281EA5F1010574
:10094000DCDC07E0D4E9012118F8010B9047206AAC
:10095000401C2062381EA7F10107F3DC2046AFF3EC
:100960000080032011B041E601694A1C0261087849
:10097000704700B58FB0CDE90131002105910549DF
:100980007944CDE9031011466846FFF72DFD0FB0FD
:1009900000BD0000E5FFFFFF0A6802F8010B0A60D6
:1009A0007047000000487047B801002030B5B0F132
:1009B0000A024FEA900E71F100034EEA817EB0EB1D
:1009C0000E0061EB91014FEA101E4EEA017E10EB22
:1009D0000E0041EB11114FEA102E4EEA016E10EBA2
:1009E0000E0041EB11214FEA104E4EEA014E10EB82
:1009F0000E0041EB1141401841F100014FEAD000D7
:100A000040EA41704FEAD10110EB80054FEA8104C2
:100A100044EA907444EB01046D1944EB0404521B46
:100A2000A3414FF0000348BF0A3200D530BD401C3F
:100A300041F1000130BD00002DE9F0411F460446A0
:100A400003260168072A01F4006004DB08B116A53B
:100A500005E016A503E008B115A500E015A521F0F5
:100A600010002060A069C01EA0610FB1401EA061EF
:100A70002046AFF300804FB1D4E9012138469047BA
:100A8000206A401C2062C01C206206E0206AFAE74F
:100A9000D4E9012115F8010B9047761EF8D22046C3
:100AA000AFF30080BDE8F0814E414E006E616E00F4
:100AB000494E4600696E66002DE9F04781461646AC
:100AC0008AB0354878440DC88DE80D003248784426
:100AD000801C03AC0DC884E80D0041F69B3008442F
:100AE000372190FBF1F290FBF1F5A5F1800501FBB8
:100AF00012041B3C02D56442012000E00020DFF814
:100B000098A080460027FA44AAF1BE0A0EE0E0074A
:100B10000AD03246684607EB470101230AEB810100
:100B200000F046FB8DE8070064107F1C002CEED11E
:100B3000194F7F44AE3F19E0E80715D007EB0410CA
:100B40000DF1180A90E80E008AE80E00C068F04225
:100B500001D1981908903246012306A903A800F094
:100B600027FB03AB83E807006D10641C002DE3D165
:100B70004FF0010332466946B8F1000F03A802D0D6
:100B800000F001FB01E000F013FBC9E90001C9F826
:100B900008200AB0BDE8F087B43D00000048704767
:100BA000980100207546FFF7F9FFAE46050069463B
:100BB000534620F00700854618B020B5FFF776FBB6
:100BC000BDE820404FF000064FF000074FF000084E
:100BD0004FF0000B21F00701AC46ACE8C009ACE8CF
:100BE000C009ACE8C009ACE8C0098D46704710B533
:100BF0000446AFF300802046BDE81040FFF742BB3B
:100C00004FF0013C50F8042B51F8043B9A4221D19B
:100C1000A2EB0C03934313EACC1317D150F8042B27
:100C200051F8043B9A4215D1A2EB0C03934313EA0B
:100C3000CC130BD150F8042B51F8043B9A4209D144
:100C4000A2EB0C03934313EACC13DBD04FF000006C
:100C5000704700BFD01A01BAB1FA81F101F0180152
:100C600022FA01F0CB40C1F12001DBB2C0B2C01AC0
:100C70002CFA01F3D11A914311EAC311E6D170475E
:100C800001491820ABBEFEE72600020070475FEA6C
:100C9000400C08BF91F0000F4FEA8C234FEAC122AD
:100CA00043EA51514FEA1C5018BF00F5F0404FEA9B
:100CB000300018BF41F000415FEA6C5C00F0298011
:100CC000BCF1FF3F08BF40F080407047130C06BFE7
:100CD00012044FF0100C4FF0000C130E04BF120260
:100CE0000CF1080C130F04BF12010CF1040C930F4C
:100CF00004BF92000CF1020CD30F04BF52000CF1A0
:100D0000010C11464FF00002A0F11F00A0EB0C00F7
:100D1000704711F0004F08BF704731F000413FF4B9
:100D2000D5AF0B0C06BF09044FF0100C4FF0000CB0
:100D30000B0E04BF09020CF1080C0B0F04BF0901D4
:100D40000CF1040C8B0F04BF89000CF1020CCB0FCB
:100D500004BF49000CF1010CCCF12003A0EB0C0006
:100D600022FA03F302FA0CF241EA030100F1010056
:100D7000704720F07F4C80EA030023F07F47ACEB04
:100D8000070303F57C5300F0004003F1FF032DE956
:100D900080494FEA154B09B44FEA144325EA0B4E3C
:100DA00024EA03480FF2042606EB132749083E788D
:100DB0005FEA320203FB0667C7F5000707FB06F68A
:100DC0004FEA54374FEAD64606F1020607FB066C97
:100DD000CCF1005C4FEA1C472CEA074C07FB06F4F9
:100DE0000CFB06F504EB15464FEA961634BF0020BF
:100DF0004FF000404FEAD13706FB07FC4FEA1C4C8E
:100E00000CFB0BF7D21B03FB0CF761EB07010CFB90
:100E10000EF7B0EB074072EB17420CFB08F734BF3C
:100E2000A2EB0742B2EB074261EB17414FEA0C44D9
:100E30004FEA910706FB07FC4FEA1C4C0CFB0BF733
:100E4000B0EBC74072EB573203FB0CF734BFA2EB99
:100E5000C742B2EBC74261EB57310CFB0EF7B0EB68
:100E6000C70072EB57720CFB08F734BFA2EBC70246
:100E7000B2EBC70261EB5771039F4FEA816141EA10
:100E8000921104EBCC044FEAD1374FEA826206FBA1
:100E900007FC42EA90124FEA80604FEA1C4C0CFBC0
:100EA0000BF7D21B03FB0CF761EB07010CFB0EF7F2
:100EB000B0EB074072EB17420CFB08F734BFA2EB14
:100EC0000742B2EB074261EB17414FEA8C554FEAFC
:100ED000910704EB9C2406FB07FC4FEA1C4C0CFB1F
:100EE0000BF7B0EBC74072EB573203FB0CF734BF84
:100EF000A2EBC742B2EBC74261EB57310CFB0EF7D6
:100F0000B0EBC70072EB57720CFB08F734BFA2EBD3
:100F1000C702B2EBC70261EB577115EB4C254FEAE4
:100F2000816141EA92114FEA82624FEAD13742EA87
:100F3000901206FB07FC44F100044FEA80604FEA80
:100F40001C4C0CFB0BF7D21B03FB0CF761EB0701EE
:100F50000CFB0EF7B0EB074072EB17420CFB08F7E7
:100F600034BFA2EB0742B2EB074261EB174115EB2E
:100F70001C154FEA813141EA92414FEA823242EA3E
:100F800090424FEA80304FEA0C7644F1000448EA80
:100F900003434EEA0B484FF0000EB2EB080C71EB26
:100FA000030724BF624639464EEB0E0E4FF0000B8E
:100FB0000018524149414BEB0B0BB2EB080C71EBA3
:100FC00003077BF1000B24BF624639464EEB0E0E41
:100FD0004FF0000B0018524149414BEB0B0BB2EBA9
:100FE000080C71EB03077BF1000B24BF6246394606
:100FF0004EEB0E0E51EA020718BF46F0010616EB43
:101000000E7655F1000254F1000103D5BDE88901C7
:10101000BDE80088BDE88901BDE80048B619524125
:1010200041EB0101A3F10103704780807F7E7D7C4D
:101030007B7A7978777676757473727171706F6E6A
:101040006E6D6C6C6B6A6A69686867666665646415
:10105000636362616160605F5F5E5E5D5D5C5C5B9F
:101060005B5A5A595958585757565655555554540E
:10107000535352525251515050504F4F4F4E4E4D6C
:101080004D4D4C4C4C4B4B4B4A4A4A4949494848B8
:1010900048474747474646464545454444444443F8
:1010A00043434342424242414141002B9C4630D49B
:1010B00077002BD01CB54FEA370703B44FF0100070
:1010C0004FF01001BAF1000F06D0BCF1000FDCBFE9
:1010D00040F0080040F008014FF000000FBCBDE8F0
:1010E00010400BF1010BBBF1010F08BF5FEA1707BE
:1010F00022BF12F1010211F101014FF0004143F151
:10110000000300F0004043EA00007047F9D357089D
:10111000D0E746EA064613F1400F4FEA16461FDDB8
:1011200013F1200FDFBF16430A46002120335B4234
:10113000BED0C3F1200746EA064602FA07F74FEA97
:10114000164646EA0706C3F1200722FA03F201FA1F
:1011500007F721FA03F14FF0000342EA0702A7E77D
:1011600046EA020646EA06464FEA164646EA0106FF
:10117000BCBF46EA0646360C4FF000034FF00002B3
:101180004FF0000194E72DE9804C9A46934670B4E5
:1011900091E8380007C831EA400C48BF34EA430CF4
:1011A00003D5FFF7E6FDFFF780FFF0BCBDE8008C3C
:1011B0002DE9804C9A46934670B491E8380007C8F0
:1011C00010F0804F08BF13F0804F03D100F005F8F6
:1011D000FFF76BFFF0BCBDE8008C20F07F4780EA92
:1011E000030023F07F4C07EB0C03A3F57C5300F0C6
:1011F0000040A3F1FE0392F0000F00F0B38095F0E1
:10120000000F00F077802DE901494FEA11404FEAC5
:10121000144621EA004800FB06FC24EA064708FBC6
:1012200006F607FB08F800FB07F718EB06484CEB3F
:10123000164C4FEA124B18EB07484FEA15464CEB99
:10124000174022EA0B4E0BFB06FC25EA06470EFB75
:1012500006F607FB0EFE0BFB07F71EEB064E4CEBEC
:10126000164C4FF000061EEB074E4CEB174B18EBDD
:101270000B0840F1000018EB0E0B58EB000840F192
:1012800000008F1A4FF000013CBFC943661B14BF1A
:10129000B5EB040C00213CBFC943F61B4FEA1744D1
:1012A0004EEA8E0E27EA04454FEA1C4704FB07620C
:1012B0002CEA074C05FB07F70CFB05F604FB0CFCBE
:1012C00016EB074642EB174216EB0C4642EB1C426C
:1012D0001BEB060658EB0202414146EA9E0601D589
:1012E000BDE80189B619524141EB0101A3F10103A7
:1012F000BDE801894FEA14454FEA114724EA054643
:1013000021EA074C05FB07F406FB07F70CFB06F187
:1013100005FB0CFC11EB074144EB17444FEA124765
:1013200011EB0C4144EB1C4422EA074C05FB07F28D
:1013300006FB07F70CFB06F605FB0CFC16EB074655
:1013400042EB174216EB0C4642EB1C456A1854F16F
:10135000000148BF7047B619524141EB0101A3F1AA
:101360000103704795F0000F37D04FEA11424FEA62
:10137000144721EA024624EA074C02FB07F106FB68
:1013800007F70CFB06F402FB0CFC14EB074441EBE3
:1013900017414FEA154714EB0C4441EB1C4125EA79
:1013A000074C02FB07F506FB07F70CFB06F602FBF2
:1013B0000CFC16EB074645EB174516EB0C4645EBC8
:1013C0001C42121951F1000148BF7047B619524131
:1013D00041EB0101A3F1010370474FEA14454FEAC5
:1013E000114724EA054621EA074C05FB07F106FBF5
:1013F00007F70CFB06F24FF0000605FB0CFC12EBA6
:10140000074241EB174112EB0C4251EB1C4148BF24
:101410007047921841EB0101A3F1010370470000EE
:10142000F8B50446002000902068816811F0010F93
:101430004AD18168254A114237D18168D543294074
:10144000491C81602068B0F1A04F02D02049884239
:1014500001D1204800E02048806800F0E0700002E0
:101460000DD51E481E490068B0FBF1F0401C00EB92
:101470004000800000E0401E00900028FBD101F0F9
:10148000F1F806461BE0816811F0010F03D1816875
:101490002940491C816001F0E5F8801B02280ED923
:1014A00020680068C043C00709D0E06D40F010001C
:1014B000E065206E40F0010020660120F8BD206844
:1014C0000168C943C907DED10020F8BD3F00008094
:1014D0000001005000030050000700500C000020E5
:1014E000400D0300FEE70000014800F0DFBC0000F3
:1014F00080000020704772B6FEE700002DE9F04F33
:10150000044690F858009BB00F464FF0000B01289E
:1015100012D0012084F858000026179618962068EB
:101520004FF0A048DFF81C91DFF81CA1474D404563
:1015300006D12846009508E002201BB0BDE8F08FD8
:1015400048450AD15046CDF800A002F005FA0090B7
:10155000206802F001FA40B109E0E06D40F020009F
:10156000E06584F858600120E7E7009850B1E06D2D
:1015700040F02000E0654FF0010B00BF84F8586098
:101580005846DAE720684146884201D0A84201D196
:101590002F4800E02F48D7F800C02F4B40F61F72AD
:1015A000BCF1000F2DD0D0F808C094F838802CF48E
:1015B000604C4CEA483CD7F804804CEA080CC0F870
:1015C00008C0D4F800C08C4501D0AC4504D189686E
:1015D000AB6801F0010109E0D9F80810DAF8085009
:1015E00001F0010105F001059B68294303F00103A7
:1015F0001943C3D1BB6839681943836893431943BE
:101600001DE0876827F46047876027688F4201D014
:10161000AF4204D18968AB6801F0010109E0D9F853
:101620000810DAF8085001F0010105F001059B6887
:10163000294303F001031943A0D1816891438160DC
:101640009CE700000004005000050050000100501D
:101650000003005000070050000600502DE9F84F2D
:1016600000270446009790F85800DFF81C840D46C8
:10167000B946012811D0012684F85860206802F08C
:1016800067F960B1E06D40F02000E0655FF00107B0
:1016900084F858903846BDE8F88F0220FBE7D5E97A
:1016A00000210C23206803EA91131844036B01F016
:1016B0001F014FF01F0C0CFA01FCC2F3846223EAF5
:1016C0000C038A4013430363206802F041F9824609
:1016D000206802F039F95AEA00003CD1AA6829686A
:1016E0002068B2F1004F37D002F03AF92068416922
:1016F00021F00041416120686969C268C2F3C102FA
:10170000520091402A69042A31D000EB82002B68F4
:10171000026EDFF878C303F0F84302EA0C020B43D1
:101720001A4342F00041016622682869A96902EB68
:101730008000026E22F080720A430266297F2268CE
:101740002869012910D0002102EB8000026E22F0EE
:1017500000720A4302667DE0002202F001F920686F
:10176000416941F00041C5E74FF00071ECE700210D
:1017700002F0E4F8400320684FF0000172D002F05C
:10178000DDF890FAA0F0B0FA80F1286842036ED03C
:1017900090FAA0F0B0FA80F0814204D10022114604
:1017A000206802F0ECF80121206802F0C7F840033D
:1017B00020684FF001015DD002F0C0F890FAA0F06F
:1017C000B0FA80F12868420359D090FAA0F0B0FA3C
:1017D00080F0814204D100220121206802F0CFF87C
:1017E0000221206802F0AAF8400320684FF00201AD
:1017F00048D002F0A3F890FAA0F0B0FA80F128687F
:10180000420344D090FAA0F0B0FA80F0814204D1B3
:1018100000220221206802F0B2F80321206802F0C1
:101820008DF8400320684FF0030133D002F086F8B2
:1018300090FAA0F0B0FA80F1286842032FD090FA15
:10184000A0F0B0FA80F0814204D100220321206888
:1018500002F095F82068816811F0010F22D0ACE009
:1018600000E004E002F06AF8C0F384618DE7C0F3A1
:10187000846091E702F062F8C0F38461A2E7C0F3EC
:101880008460A6E702F05AF8C0F38461B7E7C0F3BA
:101890008460BBE702F052F8C0F38461CCE7C0F388
:1018A0008460D0E72A7B296850F8B03FC1F3120C5E
:1018B00023EA0C0302F0180C754A22FA0CF20A40D3
:1018C00013430360E968414577D1286841031CD080
:1018D00090FAA0F1B1FA81F1491C01F01F01092928
:1018E0004FEA403132D8002912D000BF90FAA0F15F
:1018F000B1FA81F101F1010101F01F0106FA01F6CF
:1019000009D100BFC0F3846109E0C0F38461E3E75B
:10191000C0F38461EEE790FAA0F1B1FA81F101F130
:10192000010101F01F0146EA816102D1C0F3846028
:1019300003E090FAA0F0B0FA80F000F1010000F0AE
:101940001F0000EB400041EA005132E000290ED0B8
:1019500090FAA0F1B1FA81F101F1010101F01F014A
:1019600006FA01F606D100BFC0F3846106E0C0F3B9
:101970008461F1E790FAA0F1B1FA81F101F101017E
:1019800001F01F0146EA816102D1C0F3846003E0E7
:1019900090FAA0F0B0FA80F000F1010000F01F0012
:1019A0003C4A00EB400002EB005041EA000141F0EC
:1019B0000071AA68206801F0D3FF37482B68034202
:1019C0003FF466AE21684FF0A04C3448344E354D9C
:1019D000614501D0A94201D1024600E03246926839
:1019E000DFF8C48002F0E072434503D0DFF8BC802A
:1019F000434521D15FEA02281ED4614506D02C4B15
:101A000099427FF445AEA94200D0304642F400012D
:101A1000826822F0E0720A43826026482649006804
:101A2000B0FBF1F0401C00EB4000800000E0401EE5
:101A300000900028FBD12BE6DFF8808043450FD1D2
:101A40005FEAC2180CD4A94202D11D4B9942F2D0D0
:101A5000614502D0A94200D0304642F080710CE0CE
:101A6000DFF860804345E6D15302E4D4A942E2D0D6
:101A7000614500D0304642F48001826822F0E07275
:101A80000A43826004E6000000007F4000F0FF038C
:101A9000FFFF0700000020FE000008800003005048
:101AA0000007005000010050000021C31000C0904A
:101AB000000600500C000020400D0300000052C73B
:101AC00000050050000084CB0068006C70470000E7
:101AD000F8B54FF0000504002E46009502D0E06DE9
:101AE00010B107E00120F8BD204600F009F9266694
:101AF00084F8586020688168C1F3407119B1816829
:101B0000734A1140816020688168C1F3007189B90E
:101B10008168704A114041F0805181606E486F4980
:101B20000068B0FBF1F04000801C00E0401E009017
:101B30000028FBD120688168C1F3007141B9E16DD3
:101B400041F01001E165216E41F00101216601259E
:101B500001F0FEFEE16DC90600D430B1E06D40F049
:101B60001000E06501252846F8BDE06D20F4807086
:101B700040F00200E0652068816811F0010F27D174
:101B80004FF0A043564A984201D0904204D1996840
:101B9000966801F001010AE052498968524E01F04D
:101BA0000101B66806F001063143504EB66806F0F2
:101BB000010631430CD1984201D0904201D14C48EA
:101BC00000E04C486168826822F47C120A4382601B
:101BD000E168E06B627F0843A16841EA4231084353
:101BE00094F8241040EA0140012904D1218D424A91
:101BF00002EB41410843E16A29B101F47871226B9B
:101C0000014342EA01002268D1683C4B194001437C
:101C1000D16020680169626B21F04061114301616C
:101C2000206801F091FE70BB207F94F83810226884
:101C3000800340EA4100D16844F202039943014322
:101C4000D16020690028206801690AD041F4803100
:101C50000161206850F8C01F22696FF30D01114324
:101C600007E021F480310161206850F8C01F6FF354
:101C70000D01016094F8400001280CD02068016932
:101C800021F001010161606901282068016B21F0E8
:101C90000F0111D013E0D4E911010843D4E9131264
:101CA0001143084321680A6940F2FC739A431043C8
:101CB00040F001000861E6E7226A521E1143016309
:101CC000E06D20F0020040F00100E0654BE700000D
:101CD000C0FFFF5FC0FFFF7F0C000020400D03002E
:101CE00000010050000400500005005000060050A4
:101CF00000030050000700500000FEFF0740F0FF07
:101D000010B59CB00446142115A8FEF7F4FB54212D
:101D10006846FEF7F0FB2068B0F1A04F26D14FF4E3
:101D20000040009080031190684600F099FD08B1D2
:101D3000FFF7E1FB0E48C16C41F40051C164C16C76
:101D400001F400511A91C16C41F00101C164C06CF1
:101D500015A900F001001A9001201590032016909B
:101D6000002017904FF0904000F04AFB1CB010BDCF
:101D7000001002402DE9F041044600684FF0A045F4
:101D8000444FA84201D0B84201D1434900E0434941
:101D9000896801F01F0601F0DBFD18B10221084639
:101DA000BDE8F08194F8580001280CD0012084F897
:101DB00058002046FFF734FB01004FF0000204D02A
:101DC00084F85820EBE70220EAE7E06D40F6016373
:101DD000984340F48070E0652068314BDFF8C4C060
:101DE000B84201D1AE4604E0984201D1E64600E097
:101DF0008646864500D02EB9D4F85CE02EF4801ECD
:101E0000C4F85CE0D4F85CE05FEACE4E06D5D4F8C6
:101E100060E02EF0060EC4F860E000E022664FF0AD
:101E20001C0EC0F800E084F858202068B84201D1A8
:101E30002A4604E0984201D1624600E0024682420E
:101E40000ED06EB1052E0BD0092E09D0E26D42F4F2
:101E50008012E265B84213D0984210D165460FE077
:101E6000C268920105D5E26D22F4005242F480521C
:101E7000E26582680C4B1A40121D82608FE70546AE
:101E8000E86880018BD5E06D20F4005040F480506C
:101E9000E06584E700010050000300500007005097
:101EA0000005005000040050C0FFFF7F10B51D4B1F
:101EB0001C49026814338A4202D14FF400111EE01B
:101EC0001849091D8A4202D14FF4800117E01549D3
:101ED00008318A4201D1890611E012490C318A4247
:101EE00002D14FF080410AE00E4910318A4201D1FF
:101EF000C90604E09A4201D1012100E002219A4280
:101F000003D0084B18339A4201D1074A01E0064A30
:101F1000203A136831EA030302D1116000F060F93E
:101F200010BD000000020140340401402DE9F84FCB
:101F300004004FF000000546009003D021680968B6
:101F4000002901DA0125FCE0617F21B920772062B8
:101F5000204600F00BF921680868E66800F40003E9
:101F6000D4E90120104362693243104322691043CF
:101F70000A68754E324002430A60D4F800C0DCF8AB
:101F8000000000020ED56BB9704871490068B0FBC3
:101F9000F1F0401C00EB8000800000E0401E00904B
:101FA0000028FBD16B486B4914308C4502D14FF4AB
:101FB00000111EE06749091D8C4502D14FF48001D4
:101FC00017E0644908318C4501D1890611E0614967
:101FD0000C318C4502D14FF080410AE05D4910314F
:101FE0008C4501D1C90604E0844501D1012100E0FE
:101FF0000221A269584B92465FEA8278574E584AAE
:10200000A3F10407A6F1040977D05FEACA6803F1D7
:10201000040A06F1040B0BD5844501D0944501D187
:10202000D44600E0DC46DCF8008048EA01080AE01B
:10203000844501D0944501D1D44600E0DC46DCF86B
:10204000008028EA0108CCF8008094F818C0DFF876
:1020500018A15FEA8C68DFF80CC1D4F8008009D5BC
:10206000804502D0904500D0D446DCF8008048EA94
:10207000010808E0804502D0904500D0D446DCF845
:10208000008028EA0108CCF80080D4F800C084451C
:1020900001D0944504D1DFF8CCC00CF1080C03E06A
:1020A000DFF8C4C00CF1080CCCF8001094F818C08C
:1020B0005FEA8C7CD4F800C009D5844501D09445F2
:1020C00002D11E680E4308E033680B4309E08445E3
:1020D00001D0944503D11E688E431E6002E0336830
:1020E0008B433360237EDB070DD02368834201D00E
:1020F000934203D1386808430CE00DE0D9F8002082
:1021000048460A4318E02368834201D093420FD126
:1021100038688843386010E0844501D0944503D185
:102120001E688E431E60EEE733688B433360EAE738
:10213000D9F8002048468A430260607F08B9012030
:1021400060772846BDE8F88F0F7E00FF0C00002066
:10215000400D03000002014024040140040401403A
:10216000180201402C0401400C04014070B586B0F7
:10217000044614216846FEF7BEF9174920688842D4
:1021800027D11648C16C41F00101C164C06C022521
:1021900000F001000095059003200024CDE9010422
:1021A0004FF090466946304600F02AF9A8020090A8
:1021B000CDE901540820CDE903406946304600F0DE
:1021C0001FF900221146402000F0B2FA402000F032
:1021D000A1FA06B070BD00000002014000100240EC
:1021E000704700002DE9F04790460D4604004FF07F
:1021F000000A0FD075B1607901280ED04FF00109A7
:1022000084F8059002202071A96808F010060429BE
:1022100005D04AE00120BDE8F0870220FBE700F08E
:1022200021FA07465FEA08004FF0030809D022E0D0
:1022300000F018FAC01B012803D92068406B000485
:1022400011D42068406B0004F2D42168686A0864E5
:1022500018E000BF00F006FAC01B01280BD9206867
:10226000406B002807DA206940F00800206184F8FC
:1022700004800320CFE72068406B0028EADB216858
:10228000686A48642068816C40F2FF32B240914332
:10229000AA6AB240114381642068C16CFF22B24037
:1022A0009143EA6AB2401143C164E869012808D148
:1022B0002268916B1F20B0408143286AB0400843D8
:1022C00090632068C06B0721B1408843A969012948
:1022D00003D0022957D06969F1B300216B69AA685C
:1022E0001A430A434FF4807101FA06F398432B799D
:1022F000012B00D0002111434FF4007202FA06F3C3
:1023000098436B79012B00D0002220F440472868C5
:1023100042EA0108022838D057EA0007216808FA83
:1023200006F03843C863206801684FF48042B24029
:10233000914301602268116840F6FE70B04081430D
:10234000E868B0400843106020680168C022B240CD
:1023500091430160287B00E015E0297CC0F38300F5
:1023600001F03C0140EA811021680A6E40F60F73CB
:10237000B3409A43B04002430A6684F804900020B8
:102380006071504647E70121A8E700F0D7FC0649F5
:10239000884202D947F40047C0E704498842BDD9C2
:1023A00047F48047BAE700000068890900B4C40414
:1023B00070B5040003D02079002510B105E001209C
:1023C00070BD6571204600F007F80220207125617C
:1023D00001202071002070BD08B5006806498842C0
:1023E00008D10648C16C41F48031C164C06C00F46E
:1023F0008030009008BD000000080050001002402E
:102400002DE9F04FDFF82092002301260324A9F1E3
:10241000040B85B00F2709F1040AABF1040EFAE0B2
:1024200006FA03F52A407CD091F804C00CF0030CA6
:10243000BCF1010F02D0BCF1020F26D1D0F808C0C8
:10244000CDF800C04FEA430C04FA0CF8CDF810C0E8
:10245000DDF800C02CEA080CCDF800C0D1F80C80E3
:10246000DDF810C008FA0CF8DDF800C048EA0C08E6
:10247000C0F80880D0F804C02CEA050C0D79C5F32B
:1024800000159D4045EA0C0545600D79ED43AD070B
:102490000ED0C5684FEA430804FA08FC25EA0C058B
:1024A000D1F808C00CFA08FC4CEA050CC0F80CC0C6
:1024B0000D7905F00305022D16D1DD0800EB850C22
:1024C000CDF808C0DCF820805D074FEAD56C07FA2C
:1024D0000CF528EA05080D6905FA0CF5DDF808C0C9
:1024E00045EA0805CCF8205005684FEA430CCDF8C2
:1024F00008C004FA0CFC25EA0C0591F804C00CF0A5
:102500000308DDF808C008FA0CF848EA0508C0F826
:1025100000804D6815F4403F7CD0444DD5F860C034
:1025200000E077E04CF0010CC5F860C02D6E23F0A0
:10253000030C05F0010500953D4D65440295AD681D
:102540004FEA837C4FEA1C7807FA08FC25EA0C0561
:10255000B0F1904F06D0DFF8DCC0604505D14FF0F8
:10256000010C20E04FF0000C1DE0DFF8CCC060450E
:1025700002D14FF0020C16E0DFF8C0C0604502D176
:102580004FF0030C0FE0DFF8B8C0604502D14FF008
:10259000040C08E0DFF8ACC0604502D14FF0050C38
:1025A00001E04FF0060C0CFA08FC4CEA050C029D09
:1025B000C5F808C0D9F80050CC46D1F8048095433E
:1025C0005FEAC82800D51543CCF80050DAF800506F
:1025D000D446D1F8048095435FEA882800D5154396
:1025E000CCF80050DBF80050DC46D1F8048095436D
:1025F0005FEA883800D51543CCF80050DEF800506B
:10260000F446D1F8048095435FEAC83800D51543F5
:10261000CCF800505B1C0A6832FA03F57FF400AF77
:1026200005B0BDE8F08F0000080401400010024032
:10263000000001400004004800080048000C004869
:102640000010004800140048426921EA02030A40D1
:1026500043EA0241816170470AB18161704781623A
:1026600070470000014880687047000000000020AB
:102670000248816842681144816070470000002070
:1026800010B50024032000F073F80F2000F008F8C4
:1026900008B1012401E000F025F8204610BD00003B
:1026A00070B50E4E05460024706898B14FF47A71EB
:1026B000B1FBF0F00A490968B1FBF0F000F0A2FDAF
:1026C00040B9102D06D200222946501E00F030F8E5
:1026D000356000E00124204670BD000000000020AD
:1026E0000C0000200A4882B0016E41F00101016631
:1026F000016E01F001010091816D41F08051816511
:10270000806D00F08050009002B000F0A1B8000091
:1027100000100240002809DB00F01F020121914057
:102720004009800000F1E020C0F80011704700006F
:10273000F0B40E4B1B680C46C3F30223C3F107052C
:10274000042D00D90425191D072901D2002300E01A
:10275000DB1E012606FA05F1491E214099409E40E4
:10276000761E16403143F0BC01F0E7BD0CED00E0F1
:10277000064900F0070208684FF6FF03184040EAD8
:102780000220034A10430860704700000CED00E08F
:102790000000FA052B492C4B0A6832214A432B4989
:1027A00040B1B0F5007F086829D020F4C06040F443
:1027B00080602CE00868C0F34120022804D051F862
:1027C000800F20F4807022E0D1F8800020F4807027
:1027D000C1F88000086820F4C06040F40070086010
:1027E000B2FBF3F0401C00E0401E4A69520501D5DF
:1027F0000028F9D1486940050AD503207047C0F385
:102800004120022806D051F8800F40F48070086003
:1028100000207047D1F8800040F48070C1F880003B
:10282000086820F4C06040F400700860B2FBF3F068
:10283000401C00E0401E4A695205DBD50028F9D152
:10284000D8E700000C00002040420F00007000405C
:102850000248816841F48041816070470070004007
:102860002DE9F843044600680026BB4D00035ED501
:10287000A86D0027C00008D4A86D40F08050A8655E
:10288000A86D012700F080500090DFF8D092D9F8B1
:10289000001041F48071C9F80010FFF7E3FE804694
:1028A00006E000BFFFF7DEFEA0EB080002282BD8F1
:1028B000D9F80000C005F5D5D5F8900010F44070A7
:1028C00014D0216D814211D0D5F89000D5F8901028
:1028D00020F4407041F48031C5F89010D5F8901084
:1028E00021F48031C5F89010C5F89000C00711D0D0
:1028F000FFF7B8FE804641F2883907E0FFF7B2FEE5
:10290000A0EB0801494501D903260BE0D5F890005A
:102910008007F3D5D5F89000216D20F4407008436E
:10292000C5F890001FB1A86D20F08050A8652078F0
:10293000C00707D0D5F88800616820F0030008437D
:10294000C5F888002078800707D5D5F88800A168E9
:1029500020F00C000843C5F888002078400707D510
:10296000D5F88800E16820F030000843C5F88800F9
:102970002078000707D5D5F88800216920F0C0002D
:102980000843C5F888002078C00607D5D5F8880028
:10299000616920F440700843C5F8880020788006FB
:1029A00007D5D5F88800A16920F440600843C5F830
:1029B00088002078400607D5D5F88800E16920F422
:1029C00040500843C5F888002078000607D5D5F8A0
:1029D0008800216A20F440400843C5F88800208818
:1029E000C00507D5D5F88800616A20F44030084357
:1029F000C5F888002068800307D5D5F89C00A16A37
:102A000020F003000843C5F89C002088800507D506
:102A1000D5F88800E16A20F440200843C5F8880012
:102A2000208840050FD5D5F88800216B20F4401090
:102A30000843C5F88800206BB0F5801F03D1E86813
:102A400040F48010E860208800050FD5D5F8880094
:102A5000616B20F440000843C5F88800606BB0F556
:102A6000800F03D1E86840F48010E8602088C0043B
:102A70000FD5D5F88800A16B20F040700843C5F849
:102A80008800A06BB0F1807F03D1E86840F480102B
:102A9000E86020884FF0006180040ED5D5F88800EA
:102AA000E26B20F040601043C5F88800E06B88427C
:102AB00003D1E86840F48010E860208840040ED517
:102AC000D5F88800226C20F040601043C5F88800DB
:102AD000206C884203D1E86840F48010E8602088C8
:102AE00000040FD5D5F88800616C20F040500843F1
:102AF000C5F88800606CB0F1805F03D1E86840F4ED
:102B00008030E8602068C0030FD5D5F88800A16C3C
:102B100020F040400843C5F88800A06CB0F1804F19
:102B200003D1E86840F48030E860206840030FD5A6
:102B3000D5F89C00E16C20F440100843C5F89C00D7
:102B4000E06CB0F5001F03D1E86840F48010E86045
:102B50003046BDE8F88300000010024000700040DD
:102B60002DE9F0470E4605004FF0000725D0DFF8AD
:102B7000AC81D8F8000000F00F00B0420CD2D8F8B9
:102B8000001021F00F013143C8F80010D8F8000000
:102B900000F00F00B04210D12968614CC80741F223
:102BA000883A5AD06868DFF87C91032808D0022858
:102BB00020682DD0400500282CDB0120BDE8F087DF
:102BC00020688001F9D5E06800F00302E068C0F3F6
:102BD0000310401C032A19D0534A00BFB2FBF0F087
:102BE000E268C2F306225043E268C2F34162521C1B
:102BF0005200B0FBF2F0484517D9A06810F0F00F72
:102C00000CD0880711D5A86840B10EE0474AE5E727
:102C10008003D0E700F0BCF8484506D9A06820F052
:102C2000F00040F08000A0608027A068696820F074
:102C300003000843A060FFF715FD814606E000BFD2
:102C4000FFF710FDA0EB090151453AD8A06869686B
:102C500000F00C00B0EB810FF2D12868810714D589
:102C6000400703D5A06840F4E060A0602878000722
:102C700005D5A06820F4605040F4E060A060A06832
:102C8000A96820F0F000084304E0802F03D1A06879
:102C900020F0F000A060D8F80010404601F00F01CD
:102CA000B14216D9016821F00F0131430160FFF7ED
:102CB000D9FC074607E000BFFFF7D4FCC11B514514
:102CC00001D903207AE7D8F8000000F00F00B042E5
:102CD000F2D12878400705D5A068E96820F4E060C3
:102CE0000843A0602878000706D5A068296920F469
:102CF000605040EAC100A06000F04AF8A1680C4AA8
:102D0000C1F30311515C01F01F01C840094908607B
:102D100009480068BDE8F047FFF7C2BC0020024048
:102D20000010024000B4C4040024F40000366E0118
:102D3000E64700080C000020000000200148006861
:102D4000704700000C0000200548064900688968AB
:102D5000054AC1F30221515C01F01F01C8407047D0
:102D60000C00002000100240F64700080548064904
:102D700000688968054AC1F3C221515C01F01F0156
:102D8000C84070470C00002000100240F6470008C1
:102D9000184910B58868C0F381021748012A0BD082
:102DA0008A68164BC2F38102022A06D08A68C2F3EF
:102DB0008102032A03D0002010BD184610BDCA6846
:102DC00002F00304CA68C2F30312521C032C02D09F
:102DD000B0FBF2F001E0B3FBF2F0CA68C968C2F3DD
:102DE00006225043C1F34161491C4900B0FBF1F098
:102DF00010BD0000001002400024F40000366E01F7
:102E00002DE9F84304007AD02078F84DC00747D068
:102E1000A868E96800F00C0001F003010C2802D05A
:102E2000082817D001E0032914D06068B0F5803F6E
:102E300017D0B0F5A02F286817D020F48030286074
:102E4000286820F4802028606068E0B1FFF70AFC61
:102E5000064614E02868800322D560680028D2D096
:102E60001EE0286840F48030EDE740F480202860C0
:102E7000F7E700BFFFF7F6FB801B642870D82868CF
:102E80008003F7D50CE0FFF7EDFB064605E000BF39
:102E9000FFF7E8FB801B6428F0D828688003F7D48C
:102EA000207880074CD5A868E96800F00C0001F094
:102EB00003010C2802D004280DD001E002290AD019
:102EC000E068002828682BD040F480702860FFF765
:102ED000C9FB064619E02868400502D5E0680028CD
:102EE00091D06868217C20F0FE4040EA0160686073
:102EF000BF480068FFF7D4FB002800D120E072E152
:102F0000FFF7B0FB801B0228B8D828684005F7D52A
:102F10006868217C20F0FE4040EA016068600FE0B4
:102F200020F480702860FFF79DFB064605E000BF97
:102F3000FFF798FB801B0228A0D828684005F7D42B
:102F40002078000729D560690028D5F8940013D0AF
:102F500040F00100C5F89400FFF784FB064606E048
:102F600090E000BFFFF77EFB801B022886D8D5F8D3
:102F700094008007F6D510E020F00100C5F8940019
:102F8000FFF770FB064604E0FFF76CFB801B02288E
:102F900078D8D5F894008007F6D42078400761D51A
:102FA000A86D0026C00008D4A86D40F08050A86528
:102FB000A86D012600F0805000908E480168C90578
:102FC00011D40168804641F480710160FFF74AFB2B
:102FD000074604E0FFF746FBC01B022852D8D8F88A
:102FE0000000C005F6D5A068012815D00528D5F841
:102FF000900016D020F00100C5F89000D5F89000A0
:1030000020F00400C5F89000A06841F28838B8B1FB
:10301000FFF728FB07460EE0D5F8900040F00100CE
:10302000F0E740F00400C5F89000F5E7FFF71AFB61
:10303000C11B414526D8D5F890008007F6D50CE095
:10304000FFF710FB074604E0FFF70CFBC11B4145EF
:1030500018D8D5F890008007F6D41EB1A86D20F0DE
:103060008050A8652078800629D5A0690028D5F869
:10307000980013D040F00100C5F89800FFF7F2FA6D
:10308000064606E075E000BFFFF7ECFA801B022859
:103090006FD8D5F898008007F6D510E020F0010031
:1030A000C5F89800FFF7DEFA064604E0FFF7DAFA03
:1030B000801B02285DD8D5F898008007F6D4E06917
:1030C000F0B3A968C1F3810103295DD00228286803
:1030D00020F08070286003D0FFF7C4FA04464BE06C
:1030E000FFF7C0FA064604E0FFF7BCFA801B02288F
:1030F0003FD828688001F7D4F4E908016FF00F0287
:1031000002EB01110843218A5204490802EB4151A4
:10311000A26841EA02210843217D4FF07E4249081E
:1031200002EB41610843217B40EAC160E968324A11
:1031300011400843E860286840F08070286000E093
:103140005EE0E86840F08070E860FFF78BFA0446C4
:1031500005E000BFFFF786FA001B022809D828689F
:103160008001F7D54CE000BFFFF77CFA001B022876
:1031700002D90320BDE8F88328688001F4D4E86808
:103180001E490840E8603BE00128F3D0E868226A65
:1031900000F00301914226D1616A00F0F0020901BA
:1031A000103991421FD1A26A00F4FE41B1EB022F07
:1031B00019D194F82C2000F07841B1EBC26F12D1F4
:1031C000218E00F4C00249084905A1F50011914281
:1031D00009D194F8341000F0C06049084906A1F103
:1031E000007181420CD00120C4E7000000100240B1
:1031F00000000020007000400C809F01FCFFEEFEEC
:103200000020B7E710B5401EB0F1807F01D3012048
:1032100010BD4FF0E02460610F21601701F08DF8C0
:103220000020A06107202061002010BD704770477A
:103230007047704770477047F0B590F83C20012AFE
:1032400043D0012580F83C50022280F83D200368DD
:103250005A689C681E4E1F4FDFF87CC0B34203D0F3
:10326000BB4201D0634504D122F4700E4A6842EAA1
:103270000E02DFF868E002EA0E02D1F800E04EEA42
:10328000020EC3F804E00268B24212D0B2F1804FDD
:103290000FD0134B9A420CD0124B9A4209D0124BCA
:1032A0009A4206D0BA4204D0104B9A4201D06245ED
:1032B00004D1896824F080031943916080F83D505F
:1032C000002180F83C100846F0BD0220F0BD00004F
:1032D000002C014000340140005001408FFFFFFDF1
:1032E0000004004000080040000C00400040014085
:1032F000704710B5040003D094F83D0010B107E00A
:10330000012010BD002084F83C00204600F022F887
:10331000022084F83D00211D206800F0AFFC012050
:1033200084F8480084F83E0084F83F0084F84000A8
:1033300084F8410084F8420084F8430084F8440093
:1033400084F8450084F8460084F8470084F83D007E
:10335000002010BD08B500680B49884212D10B4807
:10336000816D41F002018165806D002200F0020054
:10337000009011461D20FFF7DBF9BDE808401D2035
:10338000FFF7C8B908BD000000040040001002406B
:1033900090F83D10012901D001207047022180F8EA
:1033A0003D100168CA6842F00102CA600068134912
:1033B000884214D0B0F1804F11D0114988420ED00C
:1033C000104988420BD01049884208D00F498842E2
:1033D00005D00F49884202D00E49884207D1816842
:1033E0000D4A1140062906D0B1F5803F03D001688F
:1033F00041F001010160002070470000002C0140F5
:103400000004004000080040000C0040003401406F
:1034100000400140005001400700010070B5044623
:1034200090F83C00002501281CD0012684F83C605F
:10343000022084F83D0022689068334B184020F445
:103440007F4090600868B0F5005F2ED016DC402801
:1034500049D009DCD0B1102818D0202816D0302847
:1034600049D113E0022070BD50282AD0602830D006
:1034700070280FD0B0F5805F3DD13DE010F00F0F08
:1034800039D10111A1F58031072934D822680146CC
:10349000104625E0CB68D1E90121206800F060FCEE
:1034A0002068816841F0770109E0CB68D1E901210A
:1034B000206800F055FC2068816841F480418160FB
:1034C0001AE0CA684968206800F05EFC5021206854
:1034D00006E0CA684968206800F067FC602120683F
:1034E00000F048FC08E0CA684968206800F04CFC1D
:1034F00040212068F4E7012584F83D60002084F82D
:103500003C00284670BD000088FFCEFF70472DE9C3
:10351000F04104460068C66805694FF00007A90736
:1035200013D5B10711D5F91E01610120207720685C
:1035300080698007204602D0FFF7E8FF04E000F032
:10354000B7F8204600F0B5F82777680716D570075A
:1035500014D521686FF004000861022020772068EC
:10356000806910F4407F204602D0FFF7CFFF04E0CF
:1035700000F09EF8204600F09CF82777280715D524
:10358000300713D521686FF0080008610420207708
:103590002068C0698007204602D0FFF7B7FF04E02B
:1035A00000F086F8204600F084F82777E80616D564
:1035B000F00614D521686FF010000861082020770C
:1035C0002068C06910F4407F204602D0FFF79EFFBC
:1035D00004E000F06DF8204600F06BF82777E8076C
:1035E00008D0F00706D021686FF00100086120467E
:1035F00000F060F8280601D4A80408D5300606D5E6
:1036000021686FF4025008612046FFF710FEE805BC
:1036100008D5300606D521686FF480700861204611
:10362000FFF704FE680608D5700606D521686FF01E
:1036300040000861204600F049F8A80608D5B00609
:1036400006D521686FF0200008612046FFF7F0FDE5
:10365000E80208D5F00206D521686FF480100861F1
:103660002046FFF7E7FDA80208D5B00206D521687D
:103670006FF4001008612046FFF7DBFD680208D5F3
:10368000700206D521686FF4800008612046FFF7BC
:10369000D2FD28020AD5300208D521686FF4000057
:1036A00008612046BDE8F041FFF722BEBDE8F08189
:1036B0007047704700680449884204D120214FF0C8
:1036C0009040FEF7C1BF704700040040704790F87B
:1036D0008410012918D0012180F884102421C0F819
:1036E000881001680A680B6823F001030B6022F060
:1036F000005100224266036819602021C0F888103A
:1037000080F88420104670470220704770B5044648
:1037100090F8840001281DD0012084F88400242022
:10372000C4F8880020680568026822F0010202607F
:103730002068826822F060620A438260204600F0BE
:1037400047FB206805602020C4F88800002084F82A
:10375000840070BD022070BD70B5044690F88400EE
:1037600001281DD0012084F884002420C4F888009A
:1037700020680568026822F0010202602068826801
:1037800022F060420A438260204600F021FB20685C
:1037900005602020C4F88800002084F8840070BDF3
:1037A000022070BD10B5040003D0D4F8880010B119
:1037B00007E0012010BD002084F88400204600F0BE
:1037C00027F82420C4F888002068016821F001014E
:1037D0000160A06A10B1204600F01CFB204600F0FA
:1037E000FDFB0128E6D02068416821F4904141604A
:1037F0002068816821F02A0181602068016841F019
:10380000010101602046BDE8104000F067BB0000E8
:1038100010B59CB00446142115A8FCF76CFE542189
:103820006846FCF768FE16492068884226D10120C8
:103830000024CDE900046846FFF712F808B1FDF74F
:103840005AFE1048016E41F480410166016E01F498
:1038500080411A91C16C41F00401C164C06C15A98A
:1038600000F004001A90302015900220CDE91604D3
:103870000720CDE918400448FEF7C2FD1CB010BD7A
:103880000038014000100240000800482DE9F843CC
:103890000446D0F88800984616460D46202802D0E7
:1038A0000220BDE8F883A5B19EB10020C4F89000C5
:1038B0002120C4F888001834FEF7D4FEA68781467C
:1038C000E68754F8100C2027183CB0F5805F02D032
:1038D00003E00120E5E7206910B12E46002510E045
:1038E00000260EE08021204600F0C4FCC0B9DEB105
:1038F00016F8010B21688862B4F85600401EA4F83F
:103900005600B4F856004B464FF00002CDF8008048
:103910000028E7D14FF04001204600F0ABFC40B159
:10392000C4F888700320BCE735F8020BC0F3080028
:10393000E0E7C4F888700020B3E7FEE700EB810001
:10394000006E00F0F84070478068C0F3C000704718
:103950008068C0F3800070478068C0F380007047C3
:10396000042303EAD15310B518444369C1F3045149
:1039700007248C40A3438A401343436110BD00EBEE
:103980008100016E21F00041114301667047000083
:1039900030B58BB0002408940994202168460A941D
:1039A000FCF7A9FD1C484FF0A041042501604FF42D
:1039B0000031C0E90114C4600461C0E90545047721
:1039C00044770121016280F82440C462046380F8D6
:1039D0003840C46380F84040FEF77AF808B1FDF73C
:1039E0008AFD08A90C480894FDF788FD08B1FDF789
:1039F00082FD0A4800900620CDE901047F2005944D
:103A0000CDE9030569460448FDF728FE002801D0EA
:103A1000FDF771FD0BB030BD140000200200300432
:103A20000B4810B50949016000215022C0E901127C
:103A30000161C160416111218161FEF777FA0028BF
:103A400003D0BDE81040FDF756BD10BD0002014097
:103A50008000002000B58DB030216846FCF74BFD9A
:103A60001149104808600846FEF7A2FC08B1FDF7AE
:103A700042FD002002218DF804008DF8050002901F
:103A8000CDE906100091CDE9040103900246694694
:103A90000548FEF7A7FB002801D0FDF72CFD0DB06F
:103AA00000BD000000080050A400002010B586B042
:103AB00014216846FCF71FFD1648C16C41F0200137
:103AC000C164C16C01F020010591C16C41F001019C
:103AD000C164C16C01F001010591C16C41F00401A8
:103AE000C164C06C4FF0904400F0040005900022C7
:103AF00020212046FEF7B0FD20200090012000216B
:103B0000CDE90101039169462046FEF779FC06B034
:103B100010BD00000010024010B588B00024184805
:103B20000094019402940394049405941349069418
:103B3000016040F2AF41C0E901144CF24F31C0E9DD
:103B400003148461FFF7D5FB08B1FDF7D4FC4FF4F3
:103B50008050009069460A48FFF760FC08B1FDF705
:103B6000CAFC049404A906480694FFF765FB0028E4
:103B700001D0FDF7C0FC08B010BD000000040040FB
:103B8000B8000020184810B5164901604FF41651CE
:103B90004160002181600C22C160C0E90412816192
:103BA000C161016241628162FFF7FCFD08B1FDF76E
:103BB000A2FC00210C48FFF7CFFD08B1FDF79BFCEC
:103BC00000210948FFF7A2FD08B1FDF794FC064863
:103BD000FFF77DFD002803D0BDE81040FDF78BBC4A
:103BE00010BD00000038014004010020FEE7FEE7A0
:103BF00070477047FEF73CBD10B594B03821684659
:103C0000FCF779FC14210EA8FCF775FC4FF400704A
:103C1000FEF7C0FD01200090000401900220032463
:103C2000CDE907041421CDE909010B900C900D900A
:103C30006846FFF7E5F808B172B6FEE70F20CDE958
:103C40000E04002010901190129003210EA8FEF790
:103C500087FF002801D072B6FEE714B010BD000047
:103C60000248016841F470010160704788ED00E08E
:103C70000148FFF74CBC0000B80000202DE9F04FD0
:103C800002682E4B2E4E2F4FDFF8BCC02F4C304D0C
:103C90004FF0804B98420BD0584509D0B04207D026
:103CA000B84205D0604503D0A04201D0A84204D15B
:103CB00022F070084A6842EA0802DFF89880DFF8CC
:103CC0009890DFF898A0984211D058450FD0B04294
:103CD0000DD0B8420BD0604509D0A04207D0404576
:103CE00005D0484503D0504501D0A84203D122F465
:103CF0004076CA6832434E6922F080023243026045
:103D00008A68C2620A688262984209D0A04207D0DB
:103D1000404505D0484503D0504501D0A84201D1C7
:103D200009690163012141610169C90703D0016982
:103D300021F001010161BDE8F08F0000002C01407D
:103D40000004004000080040000C00400034014026
:103D50000050014000400140004401400048014043
:103D600010B5846842EA032224F47F440A432243C4
:103D7000826010BD8268034B1A400A4342F007017B
:103D8000816070478FFFCFFF10B5036A046A24F08B
:103D900001040462846924F0F00444EA021423F06C
:103DA0000A020A438461026210BD10B5036A046A04
:103DB00024F010040462846923F0A00324F4704406
:103DC00044EA023243EA01118261016210BD00003F
:103DD00030B5416EB9B1026891689268C1F3426131
:103DE0000B4B520F9C5CE50003F10804A25CB5FB91
:103DF000F2F2A0F86A205A5C615CD200B2FBF1F1E9
:103E0000A0F8681030BD0121A0F86A10F8E70000A2
:103E1000D647000890F82810090706D501684A68B7
:103E2000836B22F400421A434A6090F82810C907B5
:103E300006D001684A68C36A22F400321A434A6015
:103E400090F82810890706D501684A68036B22F4A8
:103E500080321A434A6090F82810490706D5016855
:103E60004A68436B22F480221A434A6090F8281073
:103E7000C90606D501688A68C36B22F480521A43CA
:103E80008A6090F82810890606D501688A68036C54
:103E900022F400521A438A6090F82810490611D57E
:103EA00001684A68436C22F480121A434A60416CEC
:103EB000B1F5801F06D101684A68836C22F4C00204
:103EC0001A434A6090F82810090606D501684A6826
:103ED000C06C22F4002202434A6070472DE9F84387
:103EE00000260446C0F89060FEF7BCFB80462068C0
:103EF00000684FF0200500076FF07E4713D543465A
:103F0000002229042046009700F0B4F958B1216836
:103F100051E8000F20F0800041E80002002AF6D1AD
:103F2000C4F8885021E020680068400722D5434645
:103F300000224FF480012046009700F09BF9C8B1A1
:103F4000216851E8000F20F4907041E80002002A37
:103F5000F6D12068083050E8001F21F0010140E848
:103F60000012002AF5D1C4F88C5084F88460032034
:103F7000BDE8F883C4F88850C4F88C5044F86C6FDE
:103F8000666026760020F3E710B5026852E8001F4D
:103F900021F4907142E80013002BF6D10E4B026819
:103FA000083252E8001F194042E80014002CF6D1F4
:103FB000C16E012908D1016851E8002F22F01002DA
:103FC00041E80023002BF6D12021C0F88C100021FD
:103FD000C166416710BD0000FEFFFFEF2DE9F04113
:103FE0000446016880682269E3691043626900251C
:103FF0001A431043DFF84CC20A68934B1A4002433D
:104000000A6020684168E26821F440511143416030
:104010002168A069614501D0226A10438A688B4BF0
:104020001A4002438A602068C16A626A21F00F0167
:104030001143C1628649236886488B420DD1D0F86E
:10404000880010F0030006D0012867D0022854D061
:10405000032851D164E001204FE07F498B420BD10E
:10406000D0F8880010F00C0047D0042845D008286C
:1040700052D00C2840D153E078498B420BD1D0F874
:10408000880010F0300038D0102847D0202843D0C6
:10409000302831D144E072498B420BD1D0F88800EE
:1040A00010F0C00029D0402838D0802834D0C02853
:1040B00022D135E06B498B420ED1D0F8880010F444
:1040C00040701AD0B0F5807F28D0B0F5007F23D0A3
:1040D000B0F5407F10D123E063450DD1D0F88800C2
:1040E00010F4406009D0B0F5806F17D0B0F5006FC4
:1040F00012D0B0F5406F13D010205B4A5B4F002602
:104100004FF40041634539D160B102280DD0042835
:104110000DD0082831D10EE00220EEE70420ECE7B4
:104120000820EAE7FEF710FE03E0114603E0FEF781
:104130002FFE01007BD0606A37F810206768B1FB62
:10414000F2F007EB4703834269D8B0EB073F66D82C
:10415000002308461946FCF7BBF8090241EA106142
:1041600002027808101871413A460023FCF7B0F8B3
:104170003F4AA0F54071914257D950E0E3694FF6AC
:10418000EF788B422BD1092849D2DFE800F00508EF
:104190000D48254848480E00FEF7D6FD01E0FEF721
:1041A000E5FD010001D142E01146606A37F81000D8
:1041B000B1FBF0F04100606801EB5001B1FBF0F1A0
:1041C000A1F1100040452AD84FF6F07201EA020032
:1041D000C1F34201084328E0FEF7DAFDE1E70928D0
:1041E0001DD2DFE800F005080D1C1E1C1C1C0E0073
:1041F000FEF7AAFD01E0FEF7B9FD010001D116E0CE
:104200001146606A37F81000B1FBF0F1606801EB0D
:104210005001B1FBF0F0A0F11001414504D9012596
:1042200005E0FEF7B5FDE8E780B22168C86001202F
:10423000A4F86A0024F8680F2846E6602661BDE805
:10424000F081000000800040F369FFCFFFF4FF1110
:104250000038014000100240004400400048004087
:10426000004C0040005000400024F400BE4700080D
:10427000FFFC0F002DE9F047994617460D4604460E
:104280004FF00008089E33E0701C31D0FEF7EAF9C9
:10429000A0EB0900B04218D8BEB1206801684907F8
:1042A00026D5802D24D0402D22D0C169C9430907CD
:1042B0000DD4082505622046FFF766FEC4F890502D
:1042C00084F884800120BDE8F0870320FBE7C06903
:1042D000C04300050CD421684FF4006008622046FA
:1042E000FFF752FE2020C4F8900084F88480ECE7A9
:1042F0002068C06935EA000004D00020B842C3D06D
:104300000020E0E70120F9E7FEE703B4019841004F
:10431000009850EAC12018BF04204A0D18BF40F091
:10432000010040F2FF72B2EB515F08BF40F00200A3
:10433000012808BF052002B070470907090E0028B0
:1043400004DB00F1E02080F80014704700F00F005B
:1043500000F1E02080F8141D704730380A2801D29F
:10436000012070470020704710B50446FDF702FD9C
:104370002046FDF7A9FB00EE100A0C48DFED0C0A01
:10438000B8EE400A80ED000A20EE200A10EE100A76
:1043900000F098F99FED071B53EC112B00F094F8F7
:1043A00000F060F800EE100A10BD000010000020C0
:1043B000000080396666666666660A400EB5FEF7DE
:1043C0005FF9FFF719FCFFF771FBFFF7A5FBFFF79C
:1043D000DFFAFFF725FBFFF73DFBFFF7D3FB1048A4
:1043E000FEF7D6FF0F48FFF7BFFF8DED020A10EE74
:1043F000100A00F067F941EC100B0BA153EC102BE5
:104400006846FBF7DDFF0A23072269460848FFF7E5
:104410003DFA0A23012207A10548FFF737FAE1E731
:10442000B800002014000020252E33660000000094
:10443000040100200A00000010B500290AD0087805
:10444000002807D005487844FCF7DAFB002801D0A3
:10445000002010BD0248784410BD00006E0400002A
:104460006604000021F00042A2F16052B2F5801F04
:1044700001F0004328BFD2F17F6C0BD95FEA001C2A
:1044800043EAC20242EB507018BF704728BF20F0C9
:1044900001007047B2F5801FBCBF184670474FEA55
:1044A000410C1CF5001F02D2084600F081B970B51E
:1044B00000F0B4F800000089FFF7F6BF4FF00040AD
:1044C000A0F5800070470000DFF848C170B51CEA15
:1044D000111E1EBF1CEA13159EEA0C0F95EA0C0F65
:1044E00000F06F8081EA030423EA4C134EEAD47E85
:1044F00021EA4C1141F4801143F48013AE44A1FB36
:10450000024CA0FB0365AEF17F7E361955EB0C051E
:10451000A1FB034C4CF10003A0FB021C16EB0C06A4
:10452000654153F10003094218BF46F0010613F438
:10453000007F0BD14FEA03314FEA0530340341EAE3
:10454000155140EA16506FF003020AE04FEAC3210A
:104550004FEAC520F40241EA555140EA56506FF047
:10456000020202EB2E4201EB025585EACE710AD01F
:104570005FEA440C18BF24F0004450F1000041F100
:10458000000120EAD47040F2FE7C624500D270BD8A
:10459000A84214BF4FF080444FF04044002E08BFA3
:1045A0000024BEF1806FA8BFA1F1C041BDE87040FA
:1045B00080F282804FF0000001F1C04101F0004123
:1045C00070479EEA0C0F0CEA131518BF95EA0C0F02
:1045D00006D04FF0000081EA030E0EF0004170BDDE
:1045E00000F01CF88900013E00F007B800F009B89F
:1045F0004FEA430C5FEA5C5C08D081EA030100F0FB
:104600005BB84FEA410C5FEA5C5CF6D14FF000000A
:10461000014970470000FF070000F87F0EF1020E0D
:104620002EF0030E5EF8046B364205D4012A43EBEC
:10463000030515F5001F12D8012841EB010C1CF5EC
:10464000001F0CD80ED14FEAD17C15F5001F0CEBE2
:104650004C0C0CF1020C08BF4CEBD37C04E04FF087
:10466000080C01E04FEAD37C0CEB4C0526FA05F66A
:1046700006F00706B6F1040C06D20EEB860CBDE878
:1046800070404CF0010C6047DFE80CF0090B0202AF
:104690004FF000414FF00000A1F5002170BD194618
:1046A0001046012851EB010418BFD4F5001484BF53
:1046B000002001F0004170BD0808A0F500114FEA8C
:1046C0003101704743004FEAD30C4FEA3C0C4340A2
:1046D0001FBF40070CF1605113F0FE4F70471CF0F4
:1046E000006F03D100200CF0004170470CF0004334
:1046F00043EA507010B540EACC0000F00EF800BF5D
:10470000000000924FEA0001FFF7D6BF4FF00041D2
:104710004FF00000A1F5002170470EF1020E2EF0BF
:10472000030E5EF8044B244204D44FEA4102B2F176
:104730007F4F11D84FEA4003B3F17F4F0CD80ED111
:104740004FEAD07CB2F17F4F0CEB4C0C0CF1020C19
:1047500008BF4CEBD17C04E04FF0080C01E04FEABD
:10476000D17C0CEB4C0324FA03F404F00704B4F1FD
:10477000040C06D20EEB840CBDE810404CF0010C8A
:104780006047DFE80CF0070802024FF00040A0F598
:10479000800010BD0846420018BFD2F1807288BF69
:1047A00000F0004010BD4FF04070E1EE100A70477D
:1047B000FF2141EAD050C0057047FBF79FBF0100C1
:1047C00002000400060008000A000C00100020008F
:1047D00040008000000101010103070100000804FE
:1047E00002040801010100000000000000000102B5
:1047F000030406070809000000000102030400008A
:1048000002400000000000A0000000000540000081
:10481000000000C8000000000C4000000000409CA8
:1048200000000000194000000020BCBE0000000095
:1048300034400000BFC91B8E00000004B5400000DA
:10484000504BCFD06607E2CF010000006C41000062
:104850003E8251AADFEEA73401000000D9420000D9
:10486000DCB5A0E23A301F97FFFFFFFFB445000020
:10487000FD25A0C8E9A3C14FFFFFFFFFFF3F0000D8
:104880000000008000000000FF3F000000000080EA
:1048900000000000D04800080000002014000000C4
:1048A00014020008E448000814000020E407000097
:1048B000300200081C00000043000000F8FFFFFF6A
:1048C0000C0000000E0000000F0000002E00000091
:1048D0001000000001000000000000000024F400AF
:0448E00000000000D4
:04000005080001D915
:00000001FF
